{
  "contractName": "LipToken",
  "abi": [
    {
      "inputs": [
        {
          "internalType": "string",
          "name": "_name",
          "type": "string"
        },
        {
          "internalType": "string",
          "name": "_symbol",
          "type": "string"
        }
      ],
      "stateMutability": "nonpayable",
      "type": "constructor"
    },
    {
      "anonymous": false,
      "inputs": [
        {
          "indexed": true,
          "internalType": "address",
          "name": "owner",
          "type": "address"
        },
        {
          "indexed": true,
          "internalType": "address",
          "name": "approved",
          "type": "address"
        },
        {
          "indexed": true,
          "internalType": "uint256",
          "name": "tokenId",
          "type": "uint256"
        }
      ],
      "name": "Approval",
      "type": "event"
    },
    {
      "anonymous": false,
      "inputs": [
        {
          "indexed": true,
          "internalType": "address",
          "name": "owner",
          "type": "address"
        },
        {
          "indexed": true,
          "internalType": "address",
          "name": "operator",
          "type": "address"
        },
        {
          "indexed": false,
          "internalType": "bool",
          "name": "approved",
          "type": "bool"
        }
      ],
      "name": "ApprovalForAll",
      "type": "event"
    },
    {
      "anonymous": false,
      "inputs": [
        {
          "indexed": true,
          "internalType": "address",
          "name": "owner",
          "type": "address"
        },
        {
          "indexed": false,
          "internalType": "uint256",
          "name": "id",
          "type": "uint256"
        },
        {
          "indexed": false,
          "internalType": "uint256",
          "name": "dna",
          "type": "uint256"
        }
      ],
      "name": "NewLip",
      "type": "event"
    },
    {
      "anonymous": false,
      "inputs": [
        {
          "indexed": true,
          "internalType": "address",
          "name": "previousOwner",
          "type": "address"
        },
        {
          "indexed": true,
          "internalType": "address",
          "name": "newOwner",
          "type": "address"
        }
      ],
      "name": "OwnershipTransferred",
      "type": "event"
    },
    {
      "anonymous": false,
      "inputs": [
        {
          "indexed": true,
          "internalType": "address",
          "name": "from",
          "type": "address"
        },
        {
          "indexed": true,
          "internalType": "address",
          "name": "to",
          "type": "address"
        },
        {
          "indexed": true,
          "internalType": "uint256",
          "name": "tokenId",
          "type": "uint256"
        }
      ],
      "name": "Transfer",
      "type": "event"
    },
    {
      "inputs": [
        {
          "internalType": "address",
          "name": "to",
          "type": "address"
        },
        {
          "internalType": "uint256",
          "name": "tokenId",
          "type": "uint256"
        }
      ],
      "name": "approve",
      "outputs": [],
      "stateMutability": "nonpayable",
      "type": "function"
    },
    {
      "inputs": [
        {
          "internalType": "address",
          "name": "owner",
          "type": "address"
        }
      ],
      "name": "balanceOf",
      "outputs": [
        {
          "internalType": "uint256",
          "name": "",
          "type": "uint256"
        }
      ],
      "stateMutability": "view",
      "type": "function",
      "constant": true
    },
    {
      "inputs": [
        {
          "internalType": "uint256",
          "name": "tokenId",
          "type": "uint256"
        }
      ],
      "name": "getApproved",
      "outputs": [
        {
          "internalType": "address",
          "name": "",
          "type": "address"
        }
      ],
      "stateMutability": "view",
      "type": "function",
      "constant": true
    },
    {
      "inputs": [
        {
          "internalType": "address",
          "name": "owner",
          "type": "address"
        },
        {
          "internalType": "address",
          "name": "operator",
          "type": "address"
        }
      ],
      "name": "isApprovedForAll",
      "outputs": [
        {
          "internalType": "bool",
          "name": "",
          "type": "bool"
        }
      ],
      "stateMutability": "view",
      "type": "function",
      "constant": true
    },
    {
      "inputs": [
        {
          "internalType": "uint256",
          "name": "",
          "type": "uint256"
        }
      ],
      "name": "lips",
      "outputs": [
        {
          "internalType": "string",
          "name": "name",
          "type": "string"
        },
        {
          "internalType": "uint256",
          "name": "id",
          "type": "uint256"
        },
        {
          "internalType": "uint256",
          "name": "dna",
          "type": "uint256"
        },
        {
          "internalType": "uint8",
          "name": "level",
          "type": "uint8"
        },
        {
          "internalType": "uint8",
          "name": "rarity",
          "type": "uint8"
        }
      ],
      "stateMutability": "view",
      "type": "function",
      "constant": true
    },
    {
      "inputs": [],
      "name": "name",
      "outputs": [
        {
          "internalType": "string",
          "name": "",
          "type": "string"
        }
      ],
      "stateMutability": "view",
      "type": "function",
      "constant": true
    },
    {
      "inputs": [],
      "name": "owner",
      "outputs": [
        {
          "internalType": "address",
          "name": "",
          "type": "address"
        }
      ],
      "stateMutability": "view",
      "type": "function",
      "constant": true
    },
    {
      "inputs": [
        {
          "internalType": "uint256",
          "name": "tokenId",
          "type": "uint256"
        }
      ],
      "name": "ownerOf",
      "outputs": [
        {
          "internalType": "address",
          "name": "",
          "type": "address"
        }
      ],
      "stateMutability": "view",
      "type": "function",
      "constant": true
    },
    {
      "inputs": [],
      "name": "renounceOwnership",
      "outputs": [],
      "stateMutability": "nonpayable",
      "type": "function"
    },
    {
      "inputs": [
        {
          "internalType": "address",
          "name": "from",
          "type": "address"
        },
        {
          "internalType": "address",
          "name": "to",
          "type": "address"
        },
        {
          "internalType": "uint256",
          "name": "tokenId",
          "type": "uint256"
        }
      ],
      "name": "safeTransferFrom",
      "outputs": [],
      "stateMutability": "nonpayable",
      "type": "function"
    },
    {
      "inputs": [
        {
          "internalType": "address",
          "name": "from",
          "type": "address"
        },
        {
          "internalType": "address",
          "name": "to",
          "type": "address"
        },
        {
          "internalType": "uint256",
          "name": "tokenId",
          "type": "uint256"
        },
        {
          "internalType": "bytes",
          "name": "_data",
          "type": "bytes"
        }
      ],
      "name": "safeTransferFrom",
      "outputs": [],
      "stateMutability": "nonpayable",
      "type": "function"
    },
    {
      "inputs": [
        {
          "internalType": "address",
          "name": "operator",
          "type": "address"
        },
        {
          "internalType": "bool",
          "name": "approved",
          "type": "bool"
        }
      ],
      "name": "setApprovalForAll",
      "outputs": [],
      "stateMutability": "nonpayable",
      "type": "function"
    },
    {
      "inputs": [
        {
          "internalType": "bytes4",
          "name": "interfaceId",
          "type": "bytes4"
        }
      ],
      "name": "supportsInterface",
      "outputs": [
        {
          "internalType": "bool",
          "name": "",
          "type": "bool"
        }
      ],
      "stateMutability": "view",
      "type": "function",
      "constant": true
    },
    {
      "inputs": [],
      "name": "symbol",
      "outputs": [
        {
          "internalType": "string",
          "name": "",
          "type": "string"
        }
      ],
      "stateMutability": "view",
      "type": "function",
      "constant": true
    },
    {
      "inputs": [
        {
          "internalType": "uint256",
          "name": "tokenId",
          "type": "uint256"
        }
      ],
      "name": "tokenURI",
      "outputs": [
        {
          "internalType": "string",
          "name": "",
          "type": "string"
        }
      ],
      "stateMutability": "view",
      "type": "function",
      "constant": true
    },
    {
      "inputs": [
        {
          "internalType": "address",
          "name": "from",
          "type": "address"
        },
        {
          "internalType": "address",
          "name": "to",
          "type": "address"
        },
        {
          "internalType": "uint256",
          "name": "tokenId",
          "type": "uint256"
        }
      ],
      "name": "transferFrom",
      "outputs": [],
      "stateMutability": "nonpayable",
      "type": "function"
    },
    {
      "inputs": [
        {
          "internalType": "address",
          "name": "newOwner",
          "type": "address"
        }
      ],
      "name": "transferOwnership",
      "outputs": [],
      "stateMutability": "nonpayable",
      "type": "function"
    },
    {
      "inputs": [
        {
          "internalType": "uint256",
          "name": "_fee",
          "type": "uint256"
        }
      ],
      "name": "updateFree",
      "outputs": [],
      "stateMutability": "nonpayable",
      "type": "function"
    },
    {
      "inputs": [],
      "name": "withdraw",
      "outputs": [],
      "stateMutability": "payable",
      "type": "function",
      "payable": true
    },
    {
      "inputs": [
        {
          "internalType": "string",
          "name": "_name",
          "type": "string"
        }
      ],
      "name": "createRandomLip",
      "outputs": [],
      "stateMutability": "payable",
      "type": "function",
      "payable": true
    },
    {
      "inputs": [],
      "name": "getLips",
      "outputs": [
        {
          "components": [
            {
              "internalType": "string",
              "name": "name",
              "type": "string"
            },
            {
              "internalType": "uint256",
              "name": "id",
              "type": "uint256"
            },
            {
              "internalType": "uint256",
              "name": "dna",
              "type": "uint256"
            },
            {
              "internalType": "uint8",
              "name": "level",
              "type": "uint8"
            },
            {
              "internalType": "uint8",
              "name": "rarity",
              "type": "uint8"
            }
          ],
          "internalType": "struct LipToken.Lip[]",
          "name": "",
          "type": "tuple[]"
        }
      ],
      "stateMutability": "view",
      "type": "function",
      "constant": true
    }
  ],
  "bytecode": "0x6080604052670de0b6b3a76400006008553480156200001d57600080fd5b50604051620020933803806200209383398101604081905262000040916200025d565b81518290829062000059906000906020850190620000ea565b5080516200006f906001906020840190620000ea565b5050506200008c620000866200009460201b60201c565b62000098565b505062000304565b3390565b600680546001600160a01b038381166001600160a01b0319831681179093556040519116919082907f8be0079c531659141344cd1fd0a4f28419497f9722a3daafe3b4186f6b6457e090600090a35050565b828054620000f890620002c7565b90600052602060002090601f0160209004810192826200011c576000855562000167565b82601f106200013757805160ff191683800117855562000167565b8280016001018555821562000167579182015b82811115620001675782518255916020019190600101906200014a565b506200017592915062000179565b5090565b5b808211156200017557600081556001016200017a565b634e487b7160e01b600052604160045260246000fd5b600082601f830112620001b857600080fd5b81516001600160401b0380821115620001d557620001d562000190565b604051601f8301601f19908116603f0116810190828211818310171562000200576200020062000190565b816040528381526020925086838588010111156200021d57600080fd5b600091505b8382101562000241578582018301518183018401529082019062000222565b83821115620002535760008385830101525b9695505050505050565b600080604083850312156200027157600080fd5b82516001600160401b03808211156200028957600080fd5b6200029786838701620001a6565b93506020850151915080821115620002ae57600080fd5b50620002bd85828601620001a6565b9150509250929050565b600181811c90821680620002dc57607f821691505b60208210811415620002fe57634e487b7160e01b600052602260045260246000fd5b50919050565b611d7f80620003146000396000f3fe60806040526004361061012a5760003560e01c8063698d640c116100ab57806395d89b411161006f57806395d89b411461032f578063a22cb46514610344578063b88d4fde14610364578063c87b56dd14610384578063e985e9c5146103a4578063f2fde38b146103ed57600080fd5b8063698d640c1461029957806370a08231146102ac578063715018a6146102da57806383b5daf7146102ef5780638da5cb5b1461031157600080fd5b806323b872dd116100f257806323b872dd146102005780633ccfd60b1461022057806342842e0e146102285780635ec163db146102485780636352211e1461027957600080fd5b806301a16ca11461012f57806301ffc9a71461015157806306fdde0314610186578063081812fc146101a8578063095ea7b3146101e0575b600080fd5b34801561013b57600080fd5b5061014f61014a36600461170d565b61040d565b005b34801561015d57600080fd5b5061017161016c36600461173c565b610445565b60405190151581526020015b60405180910390f35b34801561019257600080fd5b5061019b610497565b60405161017d91906117b1565b3480156101b457600080fd5b506101c86101c336600461170d565b610529565b6040516001600160a01b03909116815260200161017d565b3480156101ec57600080fd5b5061014f6101fb3660046117e0565b6105be565b34801561020c57600080fd5b5061014f61021b36600461180a565b6106d4565b61014f610705565b34801561023457600080fd5b5061014f61024336600461180a565b61077f565b34801561025457600080fd5b5061026861026336600461170d565b61079a565b60405161017d959493929190611846565b34801561028557600080fd5b506101c861029436600461170d565b610870565b61014f6102a736600461190c565b6108e7565b3480156102b857600080fd5b506102cc6102c7366004611955565b61093e565b60405190815260200161017d565b3480156102e657600080fd5b5061014f6109c5565b3480156102fb57600080fd5b506103046109fb565b60405161017d9190611970565b34801561031d57600080fd5b506006546001600160a01b03166101c8565b34801561033b57600080fd5b5061019b610b21565b34801561035057600080fd5b5061014f61035f366004611a0e565b610b30565b34801561037057600080fd5b5061014f61037f366004611a4a565b610b3b565b34801561039057600080fd5b5061019b61039f36600461170d565b610b73565b3480156103b057600080fd5b506101716103bf366004611ac6565b6001600160a01b03918216600090815260056020908152604080832093909416825291909152205460ff1690565b3480156103f957600080fd5b5061014f610408366004611955565b610c5b565b6006546001600160a01b031633146104405760405162461bcd60e51b815260040161043790611af9565b60405180910390fd5b600855565b60006001600160e01b031982166380ac58cd60e01b148061047657506001600160e01b03198216635b5e139f60e01b145b8061049157506301ffc9a760e01b6001600160e01b03198316145b92915050565b6060600080546104a690611b2e565b80601f01602080910402602001604051908101604052809291908181526020018280546104d290611b2e565b801561051f5780601f106104f45761010080835404028352916020019161051f565b820191906000526020600020905b81548152906001019060200180831161050257829003601f168201915b5050505050905090565b6000818152600260205260408120546001600160a01b03166105a25760405162461bcd60e51b815260206004820152602c60248201527f4552433732313a20617070726f76656420717565727920666f72206e6f6e657860448201526b34b9ba32b73a103a37b5b2b760a11b6064820152608401610437565b506000908152600460205260409020546001600160a01b031690565b60006105c982610870565b9050806001600160a01b0316836001600160a01b031614156106375760405162461bcd60e51b815260206004820152602160248201527f4552433732313a20617070726f76616c20746f2063757272656e74206f776e656044820152603960f91b6064820152608401610437565b336001600160a01b0382161480610653575061065381336103bf565b6106c55760405162461bcd60e51b815260206004820152603860248201527f4552433732313a20617070726f76652063616c6c6572206973206e6f74206f7760448201527f6e6572206e6f7220617070726f76656420666f7220616c6c00000000000000006064820152608401610437565b6106cf8383610cf3565b505050565b6106de3382610d61565b6106fa5760405162461bcd60e51b815260040161043790611b69565b6106cf838383610e58565b6006546001600160a01b0316331461072f5760405162461bcd60e51b815260040161043790611af9565b60006107436006546001600160a01b031690565b6040519091506001600160a01b038216904780156108fc02916000818181858888f1935050505015801561077b573d6000803e3d6000fd5b5050565b6106cf83838360405180602001604052806000815250610b3b565b600981815481106107aa57600080fd5b90600052602060002090600402016000915090508060000180546107cd90611b2e565b80601f01602080910402602001604051908101604052809291908181526020018280546107f990611b2e565b80156108465780601f1061081b57610100808354040283529160200191610846565b820191906000526020600020905b81548152906001019060200180831161082957829003601f168201915b50505050600183015460028401546003909401549293909290915060ff8082169161010090041685565b6000818152600260205260408120546001600160a01b0316806104915760405162461bcd60e51b815260206004820152602960248201527f4552433732313a206f776e657220717565727920666f72206e6f6e657869737460448201526832b73a103a37b5b2b760b91b6064820152608401610437565b6008543410156109325760405162461bcd60e51b8152602060048201526016602482015275151a1948199959481a5cc81b9bdd0818dbdc9c9958dd60521b6044820152606401610437565b61093b81610ff8565b50565b60006001600160a01b0382166109a95760405162461bcd60e51b815260206004820152602a60248201527f4552433732313a2062616c616e636520717565727920666f7220746865207a65604482015269726f206164647265737360b01b6064820152608401610437565b506001600160a01b031660009081526003602052604090205490565b6006546001600160a01b031633146109ef5760405162461bcd60e51b815260040161043790611af9565b6109f96000611140565b565b60606009805480602002602001604051908101604052809291908181526020016000905b82821015610b1857838290600052602060002090600402016040518060a0016040529081600082018054610a5290611b2e565b80601f0160208091040260200160405190810160405280929190818152602001828054610a7e90611b2e565b8015610acb5780601f10610aa057610100808354040283529160200191610acb565b820191906000526020600020905b815481529060010190602001808311610aae57829003601f168201915b50505091835250506001828101546020808401919091526002840154604084015260039093015460ff80821660608501526101009091041660809092019190915291835292019101610a1f565b50505050905090565b6060600180546104a690611b2e565b61077b338383611192565b610b453383610d61565b610b615760405162461bcd60e51b815260040161043790611b69565b610b6d84848484611261565b50505050565b6000818152600260205260409020546060906001600160a01b0316610bf25760405162461bcd60e51b815260206004820152602f60248201527f4552433732314d657461646174613a2055524920717565727920666f72206e6f60448201526e3732bc34b9ba32b73a103a37b5b2b760891b6064820152608401610437565b6000610c0960408051602081019091526000815290565b90506000815111610c295760405180602001604052806000815250610c54565b80610c3384611294565b604051602001610c44929190611bba565b6040516020818303038152906040525b9392505050565b6006546001600160a01b03163314610c855760405162461bcd60e51b815260040161043790611af9565b6001600160a01b038116610cea5760405162461bcd60e51b815260206004820152602660248201527f4f776e61626c653a206e6577206f776e657220697320746865207a65726f206160448201526564647265737360d01b6064820152608401610437565b61093b81611140565b600081815260046020526040902080546001600160a01b0319166001600160a01b0384169081179091558190610d2882610870565b6001600160a01b03167f8c5be1e5ebec7d5bd14f71427d1e84f3dd0314c0f7b2291e5b200ac8c7c3b92560405160405180910390a45050565b6000818152600260205260408120546001600160a01b0316610dda5760405162461bcd60e51b815260206004820152602c60248201527f4552433732313a206f70657261746f7220717565727920666f72206e6f6e657860448201526b34b9ba32b73a103a37b5b2b760a11b6064820152608401610437565b6000610de583610870565b9050806001600160a01b0316846001600160a01b03161480610e205750836001600160a01b0316610e1584610529565b6001600160a01b0316145b80610e5057506001600160a01b0380821660009081526005602090815260408083209388168352929052205460ff165b949350505050565b826001600160a01b0316610e6b82610870565b6001600160a01b031614610ed35760405162461bcd60e51b815260206004820152602960248201527f4552433732313a207472616e73666572206f6620746f6b656e2074686174206960448201526839903737ba1037bbb760b91b6064820152608401610437565b6001600160a01b038216610f355760405162461bcd60e51b8152602060048201526024808201527f4552433732313a207472616e7366657220746f20746865207a65726f206164646044820152637265737360e01b6064820152608401610437565b610f40600082610cf3565b6001600160a01b0383166000908152600360205260408120805460019290610f69908490611bff565b90915550506001600160a01b0382166000908152600360205260408120805460019290610f97908490611c16565b909155505060008181526002602052604080822080546001600160a01b0319166001600160a01b0386811691821790925591518493918716917fddf252ad1be2c89b69c2b068fc378daa952ba7f163c4a11628f55a4df523b3ef91a4505050565b60006110046064611392565b90506000611018662386f26fc10000611392565b6040805160a08101825285815260075460208083019190915291810183905260016060820181905260ff86166080830152600980549182018155600052815180519495509193849360049092027f6e1540171b6c0c960b71a7020d9f60077f6af931a8bbf590da0223dacf75c7af0192611096928492910190611674565b50602082015160018201556040820151600282015560608201516003909101805460809093015160ff9081166101000261ffff199094169216919091179190911790556007546110e79033906113e7565b600754604080519182526020820184905233917f24d2d558f98bdd9d21339e119fc0b03e213c7d05affd838ac2ee136d90e3bbeb910160405180910390a26007805490600061113583611c2e565b919050555050505050565b600680546001600160a01b038381166001600160a01b0319831681179093556040519116919082907f8be0079c531659141344cd1fd0a4f28419497f9722a3daafe3b4186f6b6457e090600090a35050565b816001600160a01b0316836001600160a01b031614156111f45760405162461bcd60e51b815260206004820152601960248201527f4552433732313a20617070726f766520746f2063616c6c6572000000000000006044820152606401610437565b6001600160a01b03838116600081815260056020908152604080832094871680845294825291829020805460ff191686151590811790915591519182527f17307eab39ab6107e8899845ad3d59bd9653f200f220920489ca2b5937696c31910160405180910390a3505050565b61126c848484610e58565b61127884848484611401565b610b6d5760405162461bcd60e51b815260040161043790611c49565b6060816112b85750506040805180820190915260018152600360fc1b602082015290565b8160005b81156112e257806112cc81611c2e565b91506112db9050600a83611cb1565b91506112bc565b60008167ffffffffffffffff8111156112fd576112fd611880565b6040519080825280601f01601f191660200182016040528015611327576020820181803683370190505b5090505b8415610e505761133c600183611bff565b9150611349600a86611cc5565b611354906030611c16565b60f81b81838151811061136957611369611cd9565b60200101906001600160f81b031916908160001a90535061138b600a86611cb1565b945061132b565b60008042336040516020016113c392919091825260601b6bffffffffffffffffffffffff1916602082015260340190565b60408051601f1981840301815291905280516020909101209050610c548382611cc5565b61077b8282604051806020016040528060008152506114ff565b60006001600160a01b0384163b156114f457604051630a85bd0160e11b81526001600160a01b0385169063150b7a0290611445903390899088908890600401611cef565b6020604051808303816000875af1925050508015611480575060408051601f3d908101601f1916820190925261147d91810190611d2c565b60015b6114da573d8080156114ae576040519150601f19603f3d011682016040523d82523d6000602084013e6114b3565b606091505b5080516114d25760405162461bcd60e51b815260040161043790611c49565b805181602001fd5b6001600160e01b031916630a85bd0160e11b149050610e50565b506001949350505050565b6115098383611532565b6115166000848484611401565b6106cf5760405162461bcd60e51b815260040161043790611c49565b6001600160a01b0382166115885760405162461bcd60e51b815260206004820181905260248201527f4552433732313a206d696e7420746f20746865207a65726f20616464726573736044820152606401610437565b6000818152600260205260409020546001600160a01b0316156115ed5760405162461bcd60e51b815260206004820152601c60248201527f4552433732313a20746f6b656e20616c7265616479206d696e746564000000006044820152606401610437565b6001600160a01b0382166000908152600360205260408120805460019290611616908490611c16565b909155505060008181526002602052604080822080546001600160a01b0319166001600160a01b03861690811790915590518392907fddf252ad1be2c89b69c2b068fc378daa952ba7f163c4a11628f55a4df523b3ef908290a45050565b82805461168090611b2e565b90600052602060002090601f0160209004810192826116a257600085556116e8565b82601f106116bb57805160ff19168380011785556116e8565b828001600101855582156116e8579182015b828111156116e85782518255916020019190600101906116cd565b506116f49291506116f8565b5090565b5b808211156116f457600081556001016116f9565b60006020828403121561171f57600080fd5b5035919050565b6001600160e01b03198116811461093b57600080fd5b60006020828403121561174e57600080fd5b8135610c5481611726565b60005b8381101561177457818101518382015260200161175c565b83811115610b6d5750506000910152565b6000815180845261179d816020860160208601611759565b601f01601f19169290920160200192915050565b602081526000610c546020830184611785565b80356001600160a01b03811681146117db57600080fd5b919050565b600080604083850312156117f357600080fd5b6117fc836117c4565b946020939093013593505050565b60008060006060848603121561181f57600080fd5b611828846117c4565b9250611836602085016117c4565b9150604084013590509250925092565b60a08152600061185960a0830188611785565b602083019690965250604081019390935260ff918216606084015216608090910152919050565b634e487b7160e01b600052604160045260246000fd5b600067ffffffffffffffff808411156118b1576118b1611880565b604051601f8501601f19908116603f011681019082821181831017156118d9576118d9611880565b816040528093508581528686860111156118f257600080fd5b858560208301376000602087830101525050509392505050565b60006020828403121561191e57600080fd5b813567ffffffffffffffff81111561193557600080fd5b8201601f8101841361194657600080fd5b610e5084823560208401611896565b60006020828403121561196757600080fd5b610c54826117c4565b60006020808301818452808551808352604092508286019150828160051b87010184880160005b83811015611a0057603f19898403018552815160a081518186526119bd82870182611785565b838b0151878c0152898401518a88015260608085015160ff9081169189019190915260809485015116939096019290925250509386019390860190600101611997565b509098975050505050505050565b60008060408385031215611a2157600080fd5b611a2a836117c4565b915060208301358015158114611a3f57600080fd5b809150509250929050565b60008060008060808587031215611a6057600080fd5b611a69856117c4565b9350611a77602086016117c4565b925060408501359150606085013567ffffffffffffffff811115611a9a57600080fd5b8501601f81018713611aab57600080fd5b611aba87823560208401611896565b91505092959194509250565b60008060408385031215611ad957600080fd5b611ae2836117c4565b9150611af0602084016117c4565b90509250929050565b6020808252818101527f4f776e61626c653a2063616c6c6572206973206e6f7420746865206f776e6572604082015260600190565b600181811c90821680611b4257607f821691505b60208210811415611b6357634e487b7160e01b600052602260045260246000fd5b50919050565b60208082526031908201527f4552433732313a207472616e736665722063616c6c6572206973206e6f74206f6040820152701ddb995c881b9bdc88185c1c1c9bdd9959607a1b606082015260800190565b60008351611bcc818460208801611759565b835190830190611be0818360208801611759565b01949350505050565b634e487b7160e01b600052601160045260246000fd5b600082821015611c1157611c11611be9565b500390565b60008219821115611c2957611c29611be9565b500190565b6000600019821415611c4257611c42611be9565b5060010190565b60208082526032908201527f4552433732313a207472616e7366657220746f206e6f6e20455243373231526560408201527131b2b4bb32b91034b6b83632b6b2b73a32b960711b606082015260800190565b634e487b7160e01b600052601260045260246000fd5b600082611cc057611cc0611c9b565b500490565b600082611cd457611cd4611c9b565b500690565b634e487b7160e01b600052603260045260246000fd5b6001600160a01b0385811682528416602082015260408101839052608060608201819052600090611d2290830184611785565b9695505050505050565b600060208284031215611d3e57600080fd5b8151610c548161172656fea26469706673582212208d1c8ebc09e4805c9b586236db02cf72f8531430dd3f3dff3ea05ec7b3cebc8b64736f6c634300080a0033",
  "immutableReferences": {},
  "source": "// SPDX-License-Identifier: GPL-3.0\n\npragma solidity >=0.7.0 <0.9.0;\n\nimport \"@openzeppelin/contracts/token/ERC721/ERC721.sol\";\nimport \"@openzeppelin/contracts/access/Ownable.sol\";\n\ncontract LipToken is ERC721, Ownable {\n    constructor(string memory _name, string memory _symbol)\n        ERC721(_name, _symbol)\n    {}\n\n    uint256 COUNTER;\n\n    uint256 fee = 1 ether;\n\n    struct Lip {\n        string name;\n        uint256 id;\n        uint256 dna;\n        uint8 level;\n        uint8 rarity;\n    }\n\n    Lip[] public lips;\n\n    event NewLip(address indexed owner, uint256 id, uint256 dna);\n\n    // Helpers\n    function _createRandomNum(uint256 _mod) internal view returns(uint256) {\n        uint256 randomNum = uint256(keccak256(abi.encodePacked(block.timestamp, msg.sender)));\n        return randomNum % _mod;\n    }\n\n    function updateFree(uint256 _fee) external onlyOwner() {\n        fee = _fee;\n    }\n\n    function withdraw() external payable onlyOwner() {\n        address payable _owner = payable(owner());\n        _owner.transfer(address(this).balance);\n    }\n\n\n    // Creattion\n    function _createLip(string memory _name) internal {\n        uint8 randRarity = uint8(_createRandomNum(100));\n        uint256 randna = _createRandomNum(10 ** 16);\n        Lip memory newList = Lip(_name, COUNTER, randna, 1, randRarity);\n        lips.push(newList);\n        _safeMint(msg.sender, COUNTER);\n        emit NewLip(msg.sender, COUNTER, randna);\n        COUNTER++;\n    }\n\n    function createRandomLip(string memory _name) public payable {\n        require(msg.value >= fee, \"The fee is not correct\");\n        _createLip(_name);\n    }\n\n    // Getter\n    function getLips() public view returns(Lip[] memory) {\n        return lips;\n    }    \n}\n",
  "sourcePath": "/Users/apple/Desktop/Project/NFT/nft_game/contracts/LipToken.sol",
  "compiler": {
    "name": "solc",
    "version": "0.8.10+commit.fc410830.Emscripten.clang"
  },
  "schemaVersion": "3.4.3",
  "updatedAt": "2021-12-12T18:12:42.562Z",
  "networkType": "ethereum",
  "devdoc": {
    "kind": "dev",
    "methods": {
      "approve(address,uint256)": {
        "details": "See {IERC721-approve}."
      },
      "balanceOf(address)": {
        "details": "See {IERC721-balanceOf}."
      },
      "getApproved(uint256)": {
        "details": "See {IERC721-getApproved}."
      },
      "isApprovedForAll(address,address)": {
        "details": "See {IERC721-isApprovedForAll}."
      },
      "name()": {
        "details": "See {IERC721Metadata-name}."
      },
      "owner()": {
        "details": "Returns the address of the current owner."
      },
      "ownerOf(uint256)": {
        "details": "See {IERC721-ownerOf}."
      },
      "renounceOwnership()": {
        "details": "Leaves the contract without owner. It will not be possible to call `onlyOwner` functions anymore. Can only be called by the current owner. NOTE: Renouncing ownership will leave the contract without an owner, thereby removing any functionality that is only available to the owner."
      },
      "safeTransferFrom(address,address,uint256)": {
        "details": "See {IERC721-safeTransferFrom}."
      },
      "safeTransferFrom(address,address,uint256,bytes)": {
        "details": "See {IERC721-safeTransferFrom}."
      },
      "setApprovalForAll(address,bool)": {
        "details": "See {IERC721-setApprovalForAll}."
      },
      "supportsInterface(bytes4)": {
        "details": "See {IERC165-supportsInterface}."
      },
      "symbol()": {
        "details": "See {IERC721Metadata-symbol}."
      },
      "tokenURI(uint256)": {
        "details": "See {IERC721Metadata-tokenURI}."
      },
      "transferFrom(address,address,uint256)": {
        "details": "See {IERC721-transferFrom}."
      },
      "transferOwnership(address)": {
        "details": "Transfers ownership of the contract to a new account (`newOwner`). Can only be called by the current owner."
      }
    },
    "version": 1
  },
  "userdoc": {
    "kind": "user",
    "methods": {},
    "version": 1
  }
}